:020000040800F2
:10000000E8420020A1020008AB3200084F2F000890
:10001000A9320008C50D0008455C0008000000007A
:10002000000000000000000000000000113A00087D
:10003000A10F000800000000A9360008D13C00080C
:10004000BB020008BB020008BB020008BB0200089C
:10005000BB020008BB020008BB020008BB0200088C
:10006000BB020008BB020008BB020008BB0200087C
:10007000BB020008BB020008BB020008BB0200086C
:10008000E50E0008F10E0008BB02000800000000A9
:10009000000000000000000000000000BB0200089B
:1000A000BB020008BB020008BB020008BB0200083C
:1000B000F93E0008BB020008BB020008BB020008B2
:1000C000BB020008BB020008BB020008BB0200081C
:1000D000BB020008BB0200081D440008000000002D
:1000E000BB020008BB020008BB02000800000000C1
:1000F000000000000000000000000000BB0200083B
:1001000000000000BB020008BB020008BB020008A0
:1001100000000000000000000000000000000000DF
:10012000BB020008BB020008BB020008BB020008BB
:10013000BB020008000000000000000000000000FA
:10014000000000000000000000000000C9320008AC
:10015000BB020008BB020008BB020008BB0200088B
:10016000BB020008BB020008000000000000000005
:10017000000000000000000000000000000000007F
:1001800000000000BB0200080000000000000000AA
:10019000BB020008BB02000800F002F800F071F892
:1001A0000AA090E8000C82448344AAF10107DA45D2
:1001B00001D100F066F8AFF2090EBAE80F0013F0B3
:1001C000010F18BFFB1A43F00103184778600000C5
:1001D000986000000A444FF0000C10F8013B13F047
:1001E000070408BF10F8014B1D1108BF10F8015B90
:1001F000641E05D010F8016B641E01F8016BF9D183
:1002000013F0080F1EBF10F8014BAD1C0C1B09D1D9
:100210006D1E58BF01F801CBFAD505E014F8016B4B
:1002200001F8016B6D1EF9D59142D6D370470000DD
:100230000023002400250026103A28BF78C1FBD8EF
:10024000520728BF30C148BF0B607047642900F0D7
:100250008981732900F0E583002070471FB505F000
:1002600079FD9DE8030000F01DFB00F0B9FC0400DF
:100270000020002105F058FD401C60601FBD10B536
:1002800010BD00F088FC1146FFF7E8FF05F0F2FC16
:1002900000F0B8FC03B4FFF7F2FF03BC00F0E8FC89
:1002A0000948804709480047FEE7FEE7FEE7FEE70A
:1002B000FEE7FEE7FEE7FEE7FEE7FEE70448054946
:1002C000054A064B70470000653D0008990100088B
:1002D000E83A0020E8420020E83E0020E83E002006
:1002E00070B5064600F0BEFA056806F10B0020F076
:1002F0000704B4429CBF002070BD2B466A68BAB1A7
:100300001068A04210D304F1080188423CBF506835
:10031000586007D35168101941601168091B0160CA
:1003200058601460101D70BD13465268002AE7D152
:100330002146284600F0A2FA0028DED170BD70B533
:100340000446051F00F08EFA0068002C14BF4468B4
:1003500070BD002C18BFAC423CBF20466468F8D387
:1003600001680A18AA4218BF456003D12A680546E9
:100370001144016028684119A1421CBF6C6070BD26
:100380006168696021680844286070BD53EA020C06
:1003900000F069802DE9F04B4FF00006002B1FBFE5
:1003A000B3FA83F503FA05F424FA05F65E4012BFAA
:1003B0001643B2FA82F502FA05F4C5F120051EBF14
:1003C00022FA05FC44EA0C04203556EA044C4FEAB4
:1003D000144418BF641C4FF000084FF0000990420D
:1003E00071EB030C39D3002919BFB1FA81F701FA77
:1003F00007F6B0FA80F700FA07F6C7F120071EBF2C
:1004000020FA07FC46EA0C062037B6FBF4FCA7EB03
:100410000507103F07F01F0BCBF120060CFA0BFB72
:100420002CFA06F644BFB3460026202FA4BF5E4632
:100430004FF0000B5BEA060C08BF4FF0010B19EB05
:100440000B09ABFB027C48EB0608C01B06FB02CC89
:100450000BFB03CC71EB0C01C1E70B460246414696
:100460004846BDE8F08B13B54FF000004FF0000197
:10047000AFF30080BDE81C40704700000FB41CB50E
:10048000084B06AA7B4469460090059800F09FFA45
:1004900004460020694600F0ADFA20461CBC5DF819
:1004A00014FB00006D0500002DE9F0410E460446E6
:1004B000002020622046E168884730B3252805D017
:1004C000D4E901219047206A401CF2E7E168204608
:1004D00000278847050018D0A5F14100192802D847
:1004E00020354FF400673246294620462760FFF743
:1004F000ADFE40B1012804D0F61D26F007060836EF
:10050000D8E7361DD6E72846DAE7206ABDE8F0814D
:1005100070B50C460546012A05D02878800600D51E
:10052000EA69002302E0012305E05B1C934202D24A
:10053000E05C0028F9D1A869E618C01AA861286A09
:10054000184428622846AFF3008004E0D5E9012171
:1005500014F8010B9047B442F8D32846AFF300805B
:1005600070BD00002DE9F041064600241068752991
:10057000314616A510D0AFF30080002802DA4042C1
:1005800013A507E031688A0701D512A502E04907E3
:1005900004D511A5012401E0AFF3008000210A2257
:1005A00006F1240709E0B0FBF2FCB0FBF2F302FB1A
:1005B0001C00303078541846491C0028F3D12346DB
:1005C0002A463046BDE8F04100F0A2B90000000024
:1005D0002D0000002B0000002000000070B5064632
:1005E00000F044F90468054630460A22002100F074
:1005F0001CFA2C6070BD30B505460B462A4613F830
:10060000014B12F8010B08B1A042F8D01CB1002830
:1006100002D06D1CF1E7284630BD40EA01030246D6
:1006200030B59B0710D14FF0013400E008C208C973
:100630001D1B9D4315EAC41FF8D013F0FF0102F8FB
:10064000011B0DD01B0AF8E711F8013B002B02F843
:10065000013B05D011F8013B002B02F8013BF3D11F
:1006600030BD10B5431C02E010F8011B71B18107C9
:10067000FAD14FF0013202C88C1A8C4314EAC2112D
:10068000F9D0C01A0A0603D0C01E10BDC01A10BD92
:100690000A0401D0801E10BD0902FCD0401E10BD0E
:1006A000032A40F2308010F0030C00F0158011F89E
:1006B000013BBCF1020F624498BF11F801CB00F876
:1006C000013B38BF11F8013BA2F1040298BF00F8CA
:1006D00001CB38BF00F8013B11F0030300F0258087
:1006E000083AC0F0088051F8043B083A51F804CBAE
:1006F000A0E80810F5E7121D5CBF51F8043B40F874
:10070000043BAFF30080D20724BF11F8013B11F87E
:1007100001CB48BF11F8012B24BF00F8013B00F8C2
:1007200001CB48BF00F8012B704710B5203AC0F04C
:100730000B80B1E81850203AA0E81850B1E81850E2
:10074000A0E81850BFF4F5AF5FEA027C24BFB1E81F
:100750001850A0E8185044BF18C918C0BDE8104090
:100760005FEA827C24BF51F8043B40F8043B08BF99
:100770007047D20728BF31F8023B48BF11F8012B60
:1007800028BF20F8023B48BF00F8012B70474FF00C
:10079000000200B5134694469646203922BFA0E8D1
:1007A0000C50A0E80C50B1F12001BFF4F7AF0907DD
:1007B00028BFA0E80C5048BF0CC05DF804EB8900CE
:1007C00028BF40F8042B08BF704748BF20F8022B11
:1007D00011F0804F18BF00F8012B70474FF0013C1B
:1007E00050F8042B51F8043B9A4221D1A2EB0C03A0
:1007F000934313EACC1317D150F8042B51F8043B60
:100800009A4215D1A2EB0C03934313EACC130BD1FC
:1008100050F8042B51F8043B9A4209D1A2EB0C0387
:10082000934313EACC13DBD04FF00000704700BFB6
:10083000D01A01BAB1FA81F101F0180122FA01F0DF
:10084000CB40C1F12001DBB2C0B2C01A2CFA01F3D7
:10085000D11A914311EAC311E6D17047704770472E
:100860007047000000487047903A002000487047E9
:10087000883A0020704770477047704738B5044683
:100880000A4600206946AFF30080002808BF38BD43
:1008900002460099204600F00DF9012038BD0120E4
:1008A00000F071B9F8B5AFF30080054600200C46A2
:1008B000102000BF0646A819A0420DD9324669464D
:1008C0000020AFF30080070008BF00F05CF900983B
:1008D000A04218BF0546C419FFF7C4FF05600746CC
:1008E000F01D20F007004619284600F00AF8B4422F
:1008F00008BFF8BDA21B31463868BDE8F84000F0DB
:10090000D9B800210160C0E901107047102070477C
:100910002DE9F0470D4699469246044600F1240819
:100920000168880604D5E06921F01001216000E02B
:100930000120A84201DD471B00E00027A1697A19C8
:1009400002EB0900081AA0612078C00602D42046F4
:10095000AFF30080002608E0D4E901211AF8060070
:100960009047206A401C761C20624E45F4DB2078BC
:10097000C0060AD52046AFF3008006E0D4E9012185
:1009800030209047206A401C2062381EA7F10107E2
:10099000F4DC07E0D4E9012118F805009047206A4B
:1009A000401C2062281EA5F10105F3DC2046AFF3B0
:1009B00000802078000602D50220BDE8F0870120E3
:1009C000FBE7000001694A1C02610878704700B526
:1009D0008FB0CDE901310021059105497944CDE978
:1009E000031011466846FFF75FFD0FB000BD000021
:1009F000E5FFFFFF0A6802F8010B0A60704710B5B7
:100A0000436913B1AFF3008001E0FFF781FD0120DE
:100A100010BD127800F124010A7000224A700122F0
:100A2000EDE711684FF0FF32E9E72DE9F047914615
:100A30000F4680460446002614F8015B2DB100F0F5
:100A400031F80068405DC007F6D12B2D02D02D2D66
:100A500018D0641E4A463946204600F045F827B1B2
:100A60003968A14201D1C7F800804FF00204710536
:100A70000BD54042002803DDFFF7F8FE0460A00715
:100A8000BDE8F08746F48066E4E70028F8DAFFF76F
:100A9000EDFE04606FF00040F2E700000048704790
:100AA000883A002010B500F09BF8001D10BD00BF73
:100AB00079520000034640688C46002818BF8842DF
:100AC0003CBF03464068F8D318681844884207D0F2
:100AD0000CF1030020F00700001D411A521A0146D4
:100AE000081D0A60FFF72BBC2DE9F05F8246154612
:100AF0008B4600270AF10104B9460078302801D05E
:100B00009DB113E014F8010B0127782803D0582871
:100B100001D045B10AE00DB1102D07D1002714F81E
:100B2000010B102502E0082500E00A250026B0464A
:100B30000EE005FB080005FB06F101271FFA80F80F
:100B400001EB1046B6F5803F00D3B94614F8010B0F
:100B5000294600F049F80028EBDABBF1000F05D078
:100B60000FB1641E00E05446CBF80040B9F1000F0D
:100B700006D0FFF77BFE02210160C81EBDE8F09F92
:100B800048EA0640FAE710B500F04AF8BDE8104020
:100B900000F041B870477546FFF780FFAE4605008C
:100BA0006946534620F00700854618B020B5FFF788
:100BB00085FBBDE820404FF000064FF000074FF0E6
:100BC00000084FF0000B21F00701AC46ACE8C0096B
:100BD000ACE8C009ACE8C009ACE8C0098D46704774
:100BE00000487047A83A00203A2800D2303820F058
:100BF0002002412A01D3A2F13700884201D34FF0ED
:100C0000FF30704710B50446AFF300802046BDE8C2
:100C10001040FFF73FBB002801D000F029B8704713
:100C200010B5012805D0002103A000F027F801200D
:100C300010BD09A1F8E7000053494752544D454DF6
:100C40003A204F7574206F662068656170206D656D
:100C50006D6F7279000000003A2048656170206D68
:100C6000656D6F727920636F727275707465640060
:100C700001491820ABBEFEE72600020070B505460C
:100C80000C460A2000E06D1C00F011F835B1287800
:100C90000028F8D102E0641C00F009F814B12078B3
:100CA0000028F8D1BDE870400A20AFF3008008B5F5
:100CB00069468DF800000320ABBE08BD70B50F4A31
:100CC000C1F1FF039478A34213DD00290FDB0C4C24
:100CD00001EB810300EB830513785B1EDBB213701D
:100CE00044F8235093785B1C9370491EF0D5012083
:100CF00070BD04A002F0B6FE002070BDB00100205F
:100D00008C34002054686520636F6D6D616E6420C3
:100D100071756575652069732066756C6C210000BE
:100D200070B50F4AC1F1FF039478A34213DD00238D
:100D30000C4D0CE003EB830400EB8406547845F87B
:100D40002460641C54709478641C94705B1C8B4207
:100D5000F0DB012070BD04A002F084FE002070BD15
:100D6000B00100208C34002054686520636F6D6DE5
:100D7000616E642071756575652069732066756C98
:100D80006C21000010B503A002F06CFE0C4901209C
:100D9000887210BD456E74657220646174612E2086
:100DA00050726573732022456E74657222206167EC
:100DB00061696E20746F2066696E6973682E0A001F
:100DC000B0010020FEE700207047002070470000BF
:100DD00010B500220449054803F039FC04490348D2
:100DE00003F02CFC002010BDB0170020B804002038
:100DF000B00F002070B50D4604460146054803F0CB
:100E00001DFC044803F0FFFB2946204602F0F2FCDB
:100E1000002070BDB804002010B502F027FD0020AE
:100E200010BD0000094A10B5D2F8BC22D2F8142235
:100E30000AB1012010BD0A460146044803F007FC30
:100E4000BDE81040014803F06CBC0000B80400206D
:100E50000A480B4AC17802EBC102127904E05B1C1C
:100E6000037083785B1E837003789A42F7D1491C24
:100E7000C1704179491E417102F074BCB00100207B
:100E8000883800202DE9F843804602F057F920B158
:100E90004046BDE8F84302F061BE114D00242F1F0B
:100EA00017E000BF05EB041001684046FFF7A3FB05
:100EB00006000DD005EB04146A46214602F0C8FA7C
:100EC0000146E3689DF8002030469847BDE8F88366
:100ED000641C38688442E5DB404602F0CFFDF5E74C
:100EE000CC020020014800F03FB900005804002067
:100EF000014800F039B90000F80300200168182308
:100F0000CAB2103AB2FBF3F2054B6FF30901032AA0
:100F10009B5CC36500D9091D8165084670470000C8
:100F20005E5D000810B5014600208B698A6A4FF0AB
:100F3000C07453B1B3F5005F15D072B1012A0CD063
:100F4000022A0AD0032A09D104E01AB1012A06D0E4
:100F5000022A03D1C96AC90100D5012010BDC96A9E
:100F6000A142FAD010BD002AF7D0012AF2D0022AFD
:100F7000F3D0032AF3D010BD30B50468256825F4FA
:100F800080252560046863608368402B036803D074
:100F900099600068C26030BD9A600068C16030BD71
:100FA0007047000010B50AA1FFF725FB0A4C08B1F5
:100FB000207A18B100202072022010BD06480121BD
:100FC000B030FFF77BFE207A401C2072032010BD5A
:100FD0004552524F52000000B001002072B6FEE7A9
:100FE000F0B500240A2623462246202711E0855C1E
:100FF00035B1202D05D0092D03D00A2D06D001E0F2
:1010000087541446192B02DD8CB106550023521C5F
:101010005B1C8A42EBDB0144002201F8012C064AEA
:10102000044B517843F82100491C5170F0BD86549F
:10103000ECE70000C01F002088010020014802F0FA
:1010400011BD00006934002010B505A002F00AFDB2
:1010500002F0C6FDBDE8104007A002F003BD00008D
:1010600050432062756666657220636F6E74656EAC
:10107000743A20220A000000220A0A0010B505A0D6
:1010800002F0F0FC02F0B4FDBDE8104007A002F051
:10109000E9BC000053494D206275666665722063A5
:1010A0006F6E74656E743A20220A0000220A0A00EC
:1010B0002DE9F0410446876D00F0CAFA064694F81F
:1010C00035000025022806D08020606584F8345061
:1010D0000120BDE8F0812068016821F0160101605F
:1010E0002068416921F080014161206C08B9A06C41
:1010F00020B12068016821F00801016020680168C2
:1011000021F0010101600CE000F0A2FA801B05282B
:1011100007D920206065032084F8350084F8345016
:10112000D7E720680068C007EED194F85C103F2034
:101130008840B860012084F8350084F834500020DD
:10114000C7E790F83510022903D0802141650120BE
:101150007047052180F835100068016821F0010111
:1011600001600020704700002DE9F84304464FF06D
:101170000009CDF8009063484FF41651A56D006842
:10118000B0FBF1F72E6894F85C10082000FA01F12A
:1011900031420FD021680A6852070BD50A6822F045
:1011A00004020A6094F85C108840A860606D40F00A
:1011B0000100606594F85C104FF0010808FA01F036
:1011C000304208D021684969090604D5A860606DDD
:1011D00040F00200606594F85C10042088403042C2
:1011E00008D021680968890704D5A860606D40F0BF
:1011F0000400606594F85C1010208840304218D0DC
:1012000021680968090714D5A860206801684903A6
:1012100004D50068000308D5A16C07E00168C90582
:1012200003D4016821F008010160216C09B1204656
:10123000884794F85C1020208840304231D02168E3
:101240000968C9062DD5A86094F8350005282068DE
:10125000016806D0490347D5006800031DD4616CBE
:101260001CE021F0160101602068416921F0800135
:101270004161206C08B9A06C20B12068016821F0A0
:101280000801016094F85C103F208840A86084F851
:10129000358084F83490216D1FE0E16B09B1204660
:1012A0008847606D00282BD0606DC00714D00520E2
:1012B00084F835002068016821F001010160009880
:1012C000401C0090B84203D820680068C007F6D1DF
:1012D00084F8358084F83490E16C002910D001B096
:1012E0002046BDE8F04308470168C905D5D4016828
:1012F00021F01001016084F8358084F83490CCE747
:10130000BDE8F883700000202DE9F041044600F0AC
:101310009FF906465CB1022084F83500002584F868
:1013200034502068016821F0010101600DE00120C6
:10133000BDE8F08100F08CF9801B052805D920203C
:101340006065032084F83500F2E720680068C00774
:10135000F0D12268116820480140D4E90103184304
:10136000D4E903363343184363691843A369184328
:10137000E3691843236A18430843616A042903D1C7
:10138000D4E90B1319430843106020684069666A6A
:1013900020F0070130460E43012704280CD1A06A33
:1013A0000643E06A40B12046FFF7BCFD20B1402073
:1013B000606584F83570BAE7206846612046FFF71B
:1013C0009DFD94F85C203F2191408160656584F823
:1013D00035700020ACE700003F8010F02DE9F041AF
:1013E0000446866D90F83400002501280DD00120B8
:1013F00084F8340094F835700020012F07D084F869
:10140000340002252846BDE8F0810220FBE70227D0
:1014100084F8357060652046FFF7AEFD94F85C10E7
:101420003F208840B0602068016841F016010160EB
:10143000206C20B12068016841F00801016020683B
:10144000016841F001010160DCE7000070B504466D
:1014500000F0FEF80546601C02D004480078044401
:1014600000F0F6F8401BA042FAD370BD64000020E3
:101470002DE9F84FDFF8B8A1002201240AF1040B8E
:1014800003254FF00F090BF1040E00BF0B6804FA9F
:1014900002F63340B34273D10F7907F00307012FEF
:1014A00001D0022F16D187684FEA420805FA08FCDE
:1014B00027EA0C07D1F80CC00CFA08FC4CEA070C20
:1014C000C0F808C04768B7430E79C6F300169640C7
:1014D0003E4346600E79F643B6070DD0C768560006
:1014E00005FA06FC27EA0C07D1F808C00CFA06FC3E
:1014F0004CEA070CC0F80CC00E7906F00306022E69
:1015000010D1D60800EB8608D8F8206057074FEABC
:10151000D76C09FA0CF7BE430F6907FA0CF737438B
:10152000C8F8207006684FEA420C05FA0CF7BE4373
:101530000F7907F0030707FA0CF7374307604E6887
:1015400016F4403F6DD03B4E376847F48047376014
:10155000366822F0030706F480460096364E07EB05
:10156000060CDCF8086897073F0F09FA07F826EA27
:101570000806DFF8C880404503D14FF000081EE0A0
:101580004FE0DFF8BC80404502D14FF0010816E083
:10159000DFF8B080404502D14FF002080FE0DFF8DD
:1015A000A880404502D14FF0030808E0DFF89C8096
:1015B000404502D14FF0040801E04FF0070808FA57
:1015C00007F848EA0608CCF80888DAF800605746B9
:1015D000D1F804C09E435FEACC3C00D51E433E6078
:1015E000DBF800605F46D1F804C09E435FEA8C3CA4
:1015F00000D51E433E60DEF800607746D1F804C097
:101600009E435FEACC2C00D51E433E60084F0C374A
:101610003E68D1F804C09E435FEA8C2C00D51E437F
:101620003E60521C102AFFF431AFBDE8F88F000075
:10163000003C0140443802400030014000000240BC
:101640000004024000080240000C0240001002406A
:1016500001488068704700006400002002488168EB
:101660000278114481607047640000200B4810B577
:10167000016841F400710160016841F4806101601A
:10168000016841F480710160032000F06FF80F20C1
:1016900000F006F800F024F8002010BD003C0240E5
:1016A00070B50D4D04464FF47A712878B1FBF0F017
:1016B0000A490968B1FBF0F000F0A6FF48B9102C08
:1016C00007D200222146501E00F030F800206C6046
:1016D00070BD012070BD000064000020700000207B
:1016E0000A4808B5016841F480410160006800F4CF
:1016F000804000900548001F016841F08051016062
:10170000006800F08050009008BD0000443802409E
:10171000002809DB00F01F020121914040098000F0
:1017200000F1E020C0F8001170470000F0B40E4B4B
:101730001B680C46C3F30223C3F10705042D00D92F
:101740000425191D072901D2002300E0DB1E012614
:1017500006FA05F1491E214099409E40761E16402A
:101760003143F0BC04F06FBA0CED00E0064900F024
:10177000070208684FF6FF03184040EA0220034AB8
:1017800010430860704700000CED00E00000FA050F
:1017900070470068416200207047F0B50368586ADE
:1017A00039B19C6A4FF4827600EB144400204D1E40
:1017B0000AE040EA024098620FE006EB8007DF593A
:1017C000401C04EB1744C0B2A842F6D344EA0240DE
:1017D0004FF4807202EB810158500020F0BDD0F828
:1017E000040403F0D5B9C1EBC10200EB8202D0F8CA
:1017F0000404926C03F042B9C1EBC10200EB820217
:10180000D0F80404D2F8082203F08CB9D0F804040C
:1018100003F0C0B970B504460B0601F00F00C0EB31
:10182000C00104EB81014FF001024FF0000503D528
:1018300081F83D203C3103E081F8FD5101F5FE7156
:10184000087094F8BC03012808D084F8BC232068F1
:1018500003F05EFD84F8BC53002070BD022070BD13
:1018600070B5044601F00F006268904201D9012072
:1018700070BD0B0601F00F01C1EBC10104EB81014A
:101880004FF001024FF0000503D581F83D203C31B7
:1018900003E081F8FD5101F5FE718D70087094F838
:1018A000BC03012808D084F8BC23206803F02AFF79
:1018B00084F8BC53002070BD022070BD01F00F0100
:1018C000C1EBC10100EB8100D0F8140270472DE993
:1018D000F04104460F0601F00F00C0EBC00104EB1D
:1018E00081014FF001064FF0000503D581F83D60FE
:1018F0003C3103E081F8FD5101F5FE7108708A600A
:10190000CB704A7802B1C880022B00D10D7194F8D7
:10191000BC03012809D084F8BC63206803F050FCA4
:10192000284684F8BC53BDE8F0810220FBE770B57F
:101930000C4601F00F05C5EBC50100EB8101C1F8B4
:101940001032C1F808220023C1F8143281F8FD31A9
:1019500081F8FC51036901F5FE71012B00D10A6188
:101960002207027C006803D003F024FF002070BD32
:1019700003F010FEFAE770B504460D4601F00F00C3
:101980006168884201D9012070BD29064FF0000628
:101990004FF0010207D5C0EBC00104EB810181F8D3
:1019A0003D203C3107E0C5EBC50104EB810181F826
:1019B000FD6101F5FE718A70087094F8BC0301287E
:1019C00007D084F8BC23206803F0C8FE280702D0A3
:1019D00007E0022070BD217C04F57172206803F0DD
:1019E00065FE84F8BC63002070BD70B50C4601F044
:1019F0000F05C5EBC50100EB81010B658A6400236F
:101A00004B65012381F83D3001F83C5F0369012BF0
:101A100000D10A612207027C006803D003F0CAFEED
:101A2000002070BD03F0B6FDFAE700002DE9FC5F71
:101A300005680446284603F0EEFF00287ED12068A2
:101A400004F015F8002879D0206804F010F8800719
:101A500004D52168486900F002004861206804F05C
:101A600006F8C10604F57170009034D520688169CC
:101A700021F0100181612F6A07F00F00C0EBC00058
:101A800004EB8006C7F3434006F5FE76022802D039
:101A9000062811D01AE047F6F070074216D0C7F3B7
:101AA0000A1217462846F16803F0E5FFF06838444B
:101AB000F060B069384408E008222846009903F035
:101AC000DAFFB069C7F30A110844B0612068816980
:101AD00041F010018161206803F0C9FF00034FF05D
:101AE000010A4FF0080B5BD50026206803F09EFF2B
:101AF0000746DFF8689351E0F8074DD0F1B220684F
:101B000003F0ADFF8046C00707D005EB4611C1F8D2
:101B100008AB3146204601F0E3FB5FEA087022D5AE
:101B200005EB4611C1F808BB2068016C00EB4610BC
:101B30000191D0F8082B494507D900E08BE1110449
:101B400003D54FF40041C0F8081B204600F073FA9B
:101B50000198484507D92069012804D1206801214E
:101B6000009A03F0A3FD5FEAC86004D505EB4611B7
:101B70001020C1F8080B5FEA886004D505EB461118
:101B80002020C1F8080B5FEA884005D505EB461018
:101B90004FF40051C0F8081B7F08761C002FABD112
:101BA000206803F064FF40034FF000095CD5206813
:101BB00003F035FF0746002654E0F80750D0F1B295
:101BC000206803F03AFF8046C00723D006F00F02DA
:101BD0000AFA02F0D5F834288243C5F8342805EB18
:101BE0004610C0F808A9206901280FD1C6EBC6002D
:101BF00004EB8000D0E911211144816436B9206DD5
:101C000020B920680121009A03F050FDF1B220466E
:101C1000FFF7E9FD5FEA087003D505EB4611C1F84F
:101C200008B95FEAC86004D505EB46111020C1F879
:101C300008095FEA486004D505EB46114020C1F869
:101C400008095FEA887004D505EB46110220C1F847
:101C500008095FEA086003D53146204601F0A6FB7B
:101C60007F08761C002FA8D1206803F000FF002811
:101C700011DAD5F8040820F00100C5F8040894F83A
:101C8000F403012829D0204600F0B9F92068416901
:101C900001F000414161206803F0E9FE00050BD529
:101CA000D5F80808C00702D0204600F0EDF92068FA
:101CB000416901F400614161206803F0D8FEC0046D
:101CC00068D5D5F8040820F00100C5F804081021F3
:101CD000206803F07DFE002127E084F8F4930021C2
:101CE0002046FFF755FDD1E705EB41104FF67F3257
:101CF000C0F80829D0F8003923F40013C0F80039DF
:101D0000D0F8003943F00063C0F80039C0F8082B60
:101D1000D0F8002B22F40012C0F8002BD0F8002BD2
:101D200042F00062C0F8002B491C60688842DBD892
:101D3000D5F81C0840F00110C5F81C08206B60B1F4
:101D4000D5F8840840F00B00C5F88408D5F844089D
:101D500040F00B00C5F844080CE0D5F8141842F226
:101D60002B000143C5F81418D5F8100840F00B00FB
:101D7000C5F81008D5F8000820F4FE60C5F8000882
:101D8000217C2068009A03F091FC2068416901F4ED
:101D900080514161206803F06AFE800415D52068F7
:101DA00003F04EFA206803F029FEE06000F01EFA0E
:101DB0000146227B206803F0BDFE204600F00CF9AE
:101DC0002068416901F400514161206803F04FFE31
:101DD000000707D5204600F016F92068416901F098
:101DE00008014161206803F042FEC00208D50021CD
:101DF000204600F035F82068416901F48011416106
:101E0000206803F034FE800208D50021204600F04F
:101E10002BF82068416901F400114161206803F04A
:101E200026FE400007D52046FFF7D9FC206841690F
:101E300001F080414161206803F019FE40070AD596
:101E400020684568680702D52046FFF7DFFC206858
:101E5000416829434160BDE8FC9F00000A30544FAF
:101E6000D0F8040402F0E6BED0F8040402F0F2BE9A
:101E70002DE9F0418AB0040005D094F8BD0326682E
:101E8000002520B108E001200AB0BDE8F08184F807
:101E9000BC53204600F05EF8032084F8BD03F06BCD
:101EA000C00500D42561206803F06EFB04F1100129
:101EB000282288466846FEF738FC94E80F0003F0B5
:101EC000CDF90226C8BB0021206803F0F3FD0020F5
:101ED00001270EE0C0EBC00104EB810181F83D70E9
:101EE00001F83C0FC880CD708D60CD60401CC0B241
:101EF0004D6161688142EDD8002011E0C0EBC00166
:101F000004EB810181F8FD5181F8FC0181F8FF515A
:101F1000C1F80452C1F80852401CC0B2C1F81052B6
:101F200061688142EAD8282241466846FEF7FDFBF7
:101F300094E80F0003F06EFA10B184F8BD63A2E7D5
:101F400084F8385084F8BD73206803F055FA0020F7
:101F50009AE7000010B586B0044614216846FEF7E3
:101F600016FC2068B0F1A04F2FD11948002102685B
:101F700042F001020260006800F0010005904FF499
:101F8000C05000900220CDE90101032003900A20F7
:101F9000049069460F48FFF76BFA0D48001D016871
:101FA00041F0800101600A481430016841F4804129
:101FB00001600068002200F4804005901146432033
:101FC000FFF7B4FB4320FFF7A3FB06B010BD0000F2
:101FD000303802400000024070B50446C068012558
:101FE000022801D0FEF7FAFF2946D4F8040402F0D3
:101FF0009DFED4F80404BDE8704002F050BED0F855
:10200000040402F079BED0F8040402F07FBE10B5DB
:10201000044690F8BC0301280BD0012084F8BC03CF
:1020200084F83810206803F073FD002084F8BC03A6
:1020300010BD022010BDD0F8042400F571711046C7
:1020400002F080BE10B50446006894F8BC13012964
:1020500006D0012184F8BC13A16A012902D008E04E
:10206000022010BDA169012903D0816B41F48031A8
:102070008163206803F092FC206803F0AFF9002030
:1020800084F8BC0310BD000010B50446D0F8040469
:1020900002F09AFE2068D0F8001E41F00101C0F85D
:1020A000001E206A002804D00248016841F00601A1
:1020B000016010BD10ED00E02DE9F0470E4605006F
:1020C00065D0DFF81481D8F80000F7B200F00700FF
:1020D000B04207D288F80070D8F8000000F007007E
:1020E000B04254D128683D4C810712D5400703D532
:1020F000206840F4E05020602878000703D520686D
:1021000040F4604020602068A96820F0F000084397
:1021100020602878C0072DD0304968680839012828
:1021200012D0022813D0032811D00968890700298A
:102130002DDA216821F0030101432160FFF788FABD
:10214000814641F2883A0EE009688903EFE70968A1
:102150008901ECE7FFF77CFAA0EB0901514502D9B0
:102160000320BDE8F0872068696800F00C00B0EB40
:10217000810FEFD1D8F80010404601F00701B142BD
:1021800007D90770006800F00700B04201D00120B5
:10219000E7E72878400705D52068E96820F4E05093
:1021A000084320602878000706D52068296920F4B4
:1021B000604040EAC100206000F03EF82168084A13
:1021C000C1F30311515CC840064908600648006825
:1021D000FFF766FA0020C4E7003C024008380240DE
:1021E000665D00087000002068000020014800685B
:1021F0007047000070000020044805490068096825
:10220000044AC1F38221515CC8407047700000202D
:1022100008380240765D00080448054900680968EE
:10222000044AC1F34231515CC8407047700000203D
:1022300008380240765D0008154810B5006810F0B7
:102240000C02144813D01449042A0FD0082A0ED1C6
:102250000F4C241F2268236802F03F025B0207D55F
:102260002068C0F38810A0FB010106E0084610BDFD
:102270002168C1F38811A1FB00010023FEF786F855
:102280002168C1F30141491C4900B0FBF1F010BDC8
:10229000083802400024F40040787D012DE9F84F11
:1022A00004006ED02078DFF84C93C007A9F1040534
:1022B0004AD009F104000168C1F38101012908D065
:1022C0000068C0F3810002280AD1D9F8000040025A
:1022D00006D52868800337D560680028E1D033E050
:1022E0006068B0F5803F10D0B0F5A02F286810D0FE
:1022F00020F480302860286820F4802028606068FE
:10230000A8B1FFF7A5F906460DE0286840F4803033
:10231000F4E740F480202860F7E700BFFFF798F962
:10232000801B642873D828688003F7D50CE0FFF77A
:102330008FF9064605E000BFFFF78AF9801B642885
:10234000F0D828688003F7D42078DFF8AC828007C3
:102350004FF0000A3ED5A748001D016811F00C0F90
:1023600008D00068C0F3810002280BD1D9F8000022
:10237000400207D42868800716D5E068012800D1FC
:1023800012E033E1E068B8B10120C8F80000FFF7BF
:102390005FF9064605E000BFFFF75AF9801B0228E7
:1023A000C0D828688007F7D52868216920F0F80090
:1023B00040EAC10028600DE0C8F800A0FFF748F926
:1023C000064604E0FFF744F9801B02281FD828685E
:1023D0008007F7D42078000722D5864F87486169A7
:1023E000703771B101210160FFF732F9064604E050
:1023F000FFF72EF9801B022809D838688007F7D527
:102400000EE0C0F800A0FFF723F9064605E082E0E1
:10241000FFF71EF9801B02287DD838688007F7D4A3
:102420002078400768D5DFF8CCB100270BF13C0BD2
:10243000DBF80000C0000BD4DBF8001041F0805145
:10244000CBF80010DBF80000012700F0805000906E
:102450006B4E3068C00510D4306840F48070306036
:10246000FFF7F6F8009005E0FFF7F2F80099401A40
:10247000022850D83068C005F6D55E4EA0686C368C
:1024800001280FD00528306810D020F001003060FE
:10249000306820F004003060A068B8B1FFF7D8F8C9
:1024A00000900FE0306840F00100F4E740F00400D5
:1024B0003060F7E7FFF7CCF80099411A41F2883015
:1024C000814266D830688007F4D50EE0FFF7C0F887
:1024D000009007E0FFF7BCF80099411A41F28830FC
:1024E000814256D830688007F4D42FB1DBF8001051
:1024F00021F08051CBF80010A069C8B33D49091DF7
:102500000968C1F3810102294AD00228504607D048
:10251000C8F8600000E03CE0FFF79AF804463BE0B2
:102520004746C8F86000FFF793F8064605E000BF8D
:10253000FFF78EF8801B02282BD828688001F7D47B
:10254000D4E907010843A16A2E4A490802EB014178
:10255000626A41EA8211084394F82C1040EA016152
:10256000C9F8001001203866FFF772F8044606E04B
:102570003EE000BFFFF76CF8001B022809D828686E
:102580008001F7D534E000BFFFF762F8001B022896
:1025900002D90320BDE8F88F28688001F4D427E031
:1025A0000128F7D0D9F80000E26900F480019142D7
:1025B0001CD1226A00F03F01914217D147F6C07149
:1025C000626A0140B1EB821F10D1A26A4FF0FF3363
:1025D00000F4403103EB5202B1EB024F06D194F804
:1025E0002C1000F07060B0EB016F01D00120D1E73A
:1025F0000020CFE70438024000004742800E4742E7
:10260000007000400000FFFF10B5401EB0F1807F59
:1026100001D3012010BD4FF0E02460610F2160174D
:1026200003F011FB0020A06107202061002010BDF5
:102630007047704770B590F83C20012A2CD00124D7
:1026400080F83C40022280F83D2003685A689D686B
:1026500022F070060A6832435A60104B02689A42B0
:102660000ED0B2F1804F0BD00D4B9A4208D00D4BDB
:102670009A4205D00C4B9A4202D00C4B9A4204D19C
:10268000496825F080031943916080F83D4000219E
:1026900080F83C10084670BD022070BD000001406B
:1026A0000004004000080040000C004000400140D1
:1026B00010B5040003D094F83D0010B107E00120EC
:1026C00010BD002084F83C00204600F01FF80220D6
:1026D00084F83D00211D206801F014FC012084F8DD
:1026E000460084F83E0084F83F0084F8400084F8F7
:1026F000410084F8420084F8430084F8440084F8E0
:10270000450084F83D00002010BD000008B50068B9
:10271000B0F1804F12D10A48016841F00101016017
:102720000068002200F00100009011461C20FEF716
:10273000FDFFBDE808401C20FEF7EABF08BD000011
:102740004038024090F83D10012901D00120704727
:10275000022180F83D100168CA6842F00102CA6097
:1027600000680E4988420ED0B0F1804F0BD00C4962
:10277000884208D00B49884205D00B49884202D0D4
:102780000A49884204D1816801F00701062903D073
:10279000016841F001010160002070470000014024
:1027A0000004004000080040000C004000400140D0
:1027B00070B5044690F83C000025012817D001268A
:1027C00084F83C60022084F83D002068826822F092
:1027D000770222F47F4282600868502838D00DDCEE
:1027E00020284FD005DC90B3102811D14AE00220F8
:1027F00070BD302846D040280AD13BE060282FD059
:1028000070280DD0B0F5805F03D0B0F5005F12D016
:10281000012584F83D60002084F83C00284670BD06
:10282000CB68D1E90121206801F0B8FB20688168FC
:1028300041F0770109E0CB68D1E90121206801F07E
:10284000ADFB2068816841F480418160E1E719E0D7
:10285000CA684968206801F0B3FB5021206806E08F
:10286000CA684968206801F0BCFB6021206801F05B
:102870009FFBCEE7CA684968206801F0A1FB4021B0
:102880002068F4E7226801461046F0E7704770B50B
:102890000446006801694FF00005C943890715D453
:1028A000C168C943890711D4E91E0161012020775D
:1028B000206880698007204602D0FFF7E7FF04E028
:1028C00000F098F8204600F096F825772068016916
:1028D000C943490717D4C168C943490713D46FF0E6
:1028E00004010161022020772068806910F4407F94
:1028F000204602D0FFF7CAFF04E000F07BF8204634
:1029000000F079F8257720680169C943090716D4D2
:10291000C168C943090712D46FF00801016104209E
:1029200020772068C0698007204602D0FFF7AEFFFD
:1029300004E000F05FF8204600F05DF8257720689D
:102940000169C943C90617D4C168C943C90613D46C
:102950006FF010010161082020772068C06910F431
:10296000407F204602D0FFF791FF04E000F042F8DC
:10297000204600F040F8257720680169C943C9075F
:1029800008D1C168C943C90704D1891E0161204625
:1029900000F032F820680169C943090609D4C1680A
:1029A000C943090605D46FF0800101612046FFF795
:1029B0003FFE20680169C943490609D4C168C9437B
:1029C000490605D46FF040010161204600F024F86B
:1029D00020680169C94389060BD4C168C9438906C7
:1029E00007D46FF0200101612046BDE87040FFF779
:1029F00020BE70BD70477047016806484269126882
:102A0000914206D1D0E90812491C42F10002C0E906
:102A1000081270478801002070477047006C042836
:102A200002D102490120887270470000880100200D
:102A3000F8B5016804460868CA684B6910F00F0FC2
:102A40004FF0000559D003F0010602F490773743A8
:102A500065D0C10705D0D10503D5216C41F0010136
:102A60002164410705D5D90703D0216C41F002014B
:102A70002164810705D5D90703D0216C41F00401F9
:102A80002164010707D502F02001314303D0216CF6
:102A900041F008012164216C00293AD0800604D558
:102AA000900602D5204601F08BFB20684069216C1E
:102AB000C0F38010090700D460B3204601F04BFB3F
:102AC00020684069400621D52068143050E8001F76
:102AD00021F0400140E80012002AF5D1A06BA8B116
:102AE0006C490165A06BFEF72CFB002811D0A06B90
:102AF000016D01B0BDE8F040084783060FD593068D
:102B00000DD52046BDE8F84001F05ABB2046FFF73E
:102B100085FFF8BD2046FFF781FF2564F8BD266BD1
:102B20002023012E79D1C60677D5D60675D508683B
:102B3000486800904869400640D5A16B0868406825
:102B40000004000CEAD0A28D8242E7D9E085C86972
:102B5000B0F5807F2DD020680C3050E8001F21F4A4
:102B6000807140E80012002AF5D12068143050E846
:102B7000001F21F0010140E80012002AF5D1206871
:102B8000143050E8001F21F0400140E80012002AF4
:102B9000F5D184F83E30256320680C3050E8001FE2
:102BA00021F0100140E80012002AF5D1A06BFEF7D9
:102BB0007FFAA08DE18D401A81B229E0A08DE18DD0
:102BC000401A81B2E08D0028A8D00029A6D0206844
:102BD0000C3050E8002F22F4907240E80026002EBE
:102BE000F5D12068143050E8002F22F0010240E8AF
:102BF0000026002EF5D184F83E30256320680C3085
:102C000050E8002F22F0100240E80023002BF5D1FD
:102C10002046FFF702FFF8BDFFE705062BD5150696
:102C200029D594F83D002128F5D1A068B0F5805F42
:102C300001D12069B0B1206A411C2162216800786D
:102C40004860E08C401E0004000CE084E3D1206862
:102C5000C16821F08001C1602068C16841F0400175
:102C6000C160D8E7206A0088C0F308004860206A85
:102C7000801C2062E5E74006CDD55006CBD5CA685A
:102C8000204622F04002CA6084F83D3000F058F936
:102C9000C1E700001540000870B5040004D094F8A6
:102CA0003D00002510B106E0012070BD84F83C50C5
:102CB000204600F023F8242084F83D002068C168F5
:102CC00021F40051C160204601F0DAFA2068016960
:102CD00021F4904101612068416921F02A0141619C
:102CE0002068C16841F40051C1602564202084F847
:102CF0003D0084F83E00002070BD00002DE9F04149
:102D000086B0064614216846FDF741FD2F4930681C
:102D1000884257D12E480024016841F400310160F7
:102D2000006800F40030059029481038016841F02F
:102D3000010101600068694600F0010005900C2067
:102D400000900220CDE901040320039007200490A5
:102D50002048FEF78DFB214D1F484FF00067E5E846
:102D6000020740204FF48068A5E811011B4845F890
:102D70001449AC61EC612C626C62FEF7C5FA08B1D3
:102D8000FEF72CF97563AE631348154D18382860AB
:102D9000C5E90174C5E9034880156C61C5E90640C1
:102DA0002C6228466C62FEF7AFFA08B1FEF716F9FE
:102DB000B563002211462620AE63FEF7B7FC26203D
:102DC000FEF7A6FC06B0BDE8F0810000004400401C
:102DD0004038024000000240A0600240F80300209A
:102DE0005804002090F83E30202B0ED159B152B13A
:102DF00090F83C30012B08D0012380F83C300023B0
:102E0000036301F0C3BA012070470220704700003D
:102E10002DE9F8432448826911680B684FF00104DA
:102E2000DB063ED50B684FF0000C49680091926BB1
:102E3000C18912685268C2F5806292B2C281C379B8
:102E40009BB18A4225D8521A02F5806213041B0CEA
:102E500022D04FF48067BB421BD8144D002205F5E9
:102E600080664FF02008B9460FE0521AEEE76F5C1B
:102E70000FB1B75401E006F80280494502D2491C5F
:102E800089B200E00021521C92B29A42EFD3028232
:102E900002E0817A01B94472847180F807C0BDE80C
:102EA000F883C471FBE70000880100203C26002065
:102EB0007047000070B5044690F83D00202836D1D8
:102EC00091B38AB394F83C00012830D0012084F8F3
:102ED0003C002162A284E28400252564212084F83C
:102EE0003D00636B1348D863636B13481864636BCE
:102EF0001248D864606B134605652668606B321D06
:102F0000FEF76CFA21686FF04000086084F83C50CE
:102F10002068143050E8001F41F0800140E80012A2
:102F2000002AF5D1002070BDFFE70120FBE7022059
:102F3000F9E700000B4100084D410008254000085A
:102F40000149012048717047880100207047FEE761
:102F50002DE9F041274E8846371F012A04D026A0CC
:102F600000F080FD00243AE000252BE030A1D8F8E5
:102F70000000FDF733FC38B106EB05100168D8F806
:102F80000000FDF72BFCE0B906EB0514206800F00B
:102F900069FDA06830B127A000F064FDA06800685A
:102FA00000F060FD24A000F05DFD606800F05AFDB7
:102FB000A06830B124A000F055FDA068406800F082
:102FC00051FD6D1C38688542D0DB0EE006EB041025
:102FD000006800F047FD20A000F044FD641C386844
:102FE0008442F3DB1BA000F03DFD4046BDE8F0410C
:102FF000FDF7A5B9CC02002068656C70203C636FBA
:103000006D6D616E643E0A636F6D6D616E643A0A48
:1030100009616C6C202D2066756C6C2068656C7085
:1030200020697320646973706C617965640A0900B2
:10303000616C6C00200000000A4465736372697063
:1030400074696F6E3A0A00000A506172616D6574AE
:103050006572733A0A0000000A090000094910B5B8
:103060000A2008604FF47A70FEF7F0F906A000F02D
:10307000F9FC00F01FF8BDE8104008A109A000F01D
:103080003FBD0000C802002053544D3332206C6114
:10309000756E636865642E0A0000000033333334B4
:1030A00000000000332E3133342E39332E323532C6
:1030B000000000000322024902A000F083BB0000D0
:1030C000E8010020696E697453696D0010B502A0B3
:1030D00000F0C8FC012010BD53494D20636F6E669F
:1030E000696775726174696F6E20636F6D706C656E
:1030F000746564207375636365737366756C6C794E
:103100002E0A0000F0B500230A24302537261F467A
:1031100011E000BFB4EB107F02D905EB107C01E099
:1031200006EB107C01F813C001EB430C00015B1CA3
:103130008CF80170DBB29342ECD3F0BD0148807A89
:1031400040B27047B001002010B5144CE07900285F
:1031500022D000F059FFD4E90A32181A8A411BD252
:103160000FA000F07FFC1748E17850F8310000F024
:1031700079FC15A000F076FC1A48217850F821005F
:10318000006800F06FFC18A000F06CFC0020E071FB
:10319000BDE81040FDF75CBE10BD0000B00100208E
:1031A00054696D656F7574206572726F722E20435D
:1031B0006F6D706C6574696F6E206F6620746865E2
:1031C0002022000088380020222070726F67726110
:1031D0006D2E0A4C61737420636F6D6D616E643A7D
:1031E000200000008C3400200A00000010B586B0DA
:1031F00000241748009401940294039404944FF01F
:1032000080410594016044F6FF21C0E9011441F2B8
:103210008731C0E903148461FFF74AFA08B172B636
:10322000FEE74FF48050009069460948FFF7C0FA66
:1032300008B172B6FEE7049404A905480594FFF7A7
:10324000F9F9002801D072B6FEE706B010BD000003
:103250006C03002010B500220F49104801F0E9FB73
:1032600008B1FDF7BBFE0E490C4801F0D5FD08B1D1
:10327000FDF7B4FE0B49094801F0D9F908B1FDF793
:10328000ADFE064801F042FE002803D0BDE8104024
:10329000FDF7A4BE10BD000000000020B80400200F
:1032A0005001002050000020FEE7FEE710B504A109
:1032B000FDF7A1F908B1022010BD012010BD0000EA
:1032C0004552524F520000000148FEF7AFBB0000CC
:1032D000A80900200322014900F074BA240200204A
:1032E0002DE9F04103680D4604461E6C03EB4511C1
:1032F000D1F8080BD4F810E04FF400474FF0200C41
:1033000004F57172BEF1010F09D0DFF898E076453F
:1033100039D1020432D500BFC1F8087B3FE0224B0F
:103320005FEA007E04D59E4239D90004F4D436E029
:103330005FEA806E02D5C1F808CB30E010F0280FAC
:103340002DD19E4201D90004E6D4C5EBC50004EBA3
:103350008000D1F8101BD0F80432C1F31201591AC1
:10336000C0F81412D0F808121944C0F8081295B920
:10337000D4F8100278B9012120680AE080060AD545
:10338000C1F808CB07E035B9D4F8100218B900210C
:10339000184602F08BF9E9B22046FEF72DFA00201C
:1033A000BDE8F0810A31544F0A30544F2DE9F84FEF
:1033B0000E46C1EBC60100EB810481460568D4E9E5
:1033C00014103C34884202D90120BDE8F88F081A55
:1033D000A168814200D20846C01C870805EB461848
:1033E0001BE000BFA0EB010AA068504500D2824656
:1033F0000AF10300870899F8100000901FFA8AF379
:10340000F2B22846E16802F009FCE16801EB0A002B
:10341000E060A16901EB0A00A061D8F8180980B248
:10342000B84205D3D4E90501814201D20028D9D19F
:10343000D4E90501884208D806F00F010120884030
:10344000D5F834188143C5F834180020BDE70000D2
:103450002DE9F0410026904604463246374688F86A
:10346000006000E0641C2078202807D0092805D0DF
:103470000D2803D00A2801D00028F3D1886888B32A
:103480000068054605E03C2901D05B2900D1521CAB
:10349000401C01780029F6D19000FCF721FF064678
:1034A000314644E02078202805D0092803D00D2893
:1034B00001D00A2842D104F8017B00E0641C207886
:1034C0002028FBD00928F9D00D28F7D00A28F5D0FC
:1034D00010F0FF0F32D010C198F80000401C88F89F
:1034E000000001E026E0641C2078202809D009288B
:1034F00007D00D2805D00A2803D00028F3D100E01A
:103500006D1C2878202808D0092806D00D2804D062
:103510000A2802D00028F3D10CE015F8010F20286A
:10352000FBD00928F9D00D28F7D00A28F5D0287843
:103530000028B7D127703046BDE8F08128785B2895
:10354000F8D005A000F08EFA284600F08BFA05A00E
:1035500000F088FAEEE70000506172616D657465F5
:1035600072200000206E6F7420736574210A0000C1
:103570002DE9F0470546354C00202146E669E0710B
:10358000A94680460A78324F0EE0202909D0092941
:1035900007D00D2905D00A2903D033788B4207D1F3
:1035A000761C317851B16D1C29780029EDD10FE0DE
:1035B00057F82200C16829B9022007E057F8220015
:1035C000816811B14846884700E00120297819B97F
:1035D000317809B1E66105E0012813D0022815D041
:1035E00003280DD100F010FD227857F82220128A0E
:1035F000801841EB0801C4E90A010120E071A071C3
:10360000BDE8F087BDE8F04700F0D0B811A000F0A9
:1036100029FA1248E17850F8310000F023FA10A09E
:1036200000F020FA207857F82000006800F01AFA1D
:1036300019A000F017FA484600F014FA19A000F09B
:1036400011FABDE8F047FDF703BC0000B00100200F
:103650008C34002054686520220000008838002047
:10366000222070726F6772616D2068617320656ED1
:10367000646564206168656164206F6620736368B7
:103680006564756C652E0A4C61737420636F6D6D93
:10369000616E643A20000000526573706F6E63655E
:1036A0003A2000000A000000704700000B4910B5E6
:1036B0004A79FE2A0CD20A4C0B79521C44F833008A
:1036C0005B1CD8B2087104EBC0004A71083810BD09
:1036D00004A000F0C7F9002010BD0000B0010020D8
:1036E000883800205468652070726F6772616D20A1
:1036F00071756575652069732066756C6C210000B5
:1037000070B5064611A1FCF776FF002580B111A126
:103710003046FCF770FF04460FA13046FCF76BFF04
:1037200006462570204600F09DF90AA000F09AF99F
:103730000B48817929B185713046BDE87040FFF7AB
:1037400017BF3046BDE8704000F08CB948656C6C1E
:103750006F2100000A000000434C4F534500000059
:10376000B001002070B50F4C20786178884217D0E6
:103770000D4D55F820004068E06100F045FC2278CE
:1037800055F82220138AC01841F10001C4E90A014A
:103790000120E071A0711068BDE8704000F06EB9C2
:1037A00070BD0000B00100208C3400200448017876
:1037B000491C01708178491E8170FFF7D3BF00005A
:1037C000B001002070B515460E46FFF76FFF0400EC
:1037D0000CD029463046FDF7A3FA002806D004484D
:1037E00040782071BDE87040FFF7BCBF70BD00009D
:1037F000B00100202DE9F0471A4C80461A4FE069CD
:1038000000250E46B84201D165822571A1784FF09E
:1038100001090A2914D0618A326811446182414643
:10382000FCF73EFF3068402816D398F83F0098B167
:10383000A078401CA070E0694030E061BDE8F087EE
:10384000A570E76130684028F8D198F83F0000285B
:10385000F4D084F80890F1E7A570E76184F804904B
:10386000ECE7000088010020BC2300200149012072
:10387000C87070478801002010B5074CA06910B9C6
:1038800006A000F0EFF8606910B90BA000F0EAF8AC
:10389000FFF7E4FB10BD000088010020546865209C
:1038A0005541525420686173206E6F7420626565C3
:1038B0006E20736574210A005468652074696D6513
:1038C0007220686173206E6F74206265656E20736C
:1038D0006574210A0000000070B5244C0025207A90
:1038E00018B1234800F0BEF82572607A18B121485B
:1038F00000F0B8F86572A07928B11F48218A4554B4
:10390000FFF7FEFEA571207928B11C48618A455455
:10391000FDF7B8FA2571E07888B12078617888429F
:103920000DD0174951F820603046FCF79AFE81B25D
:103930003046FDF777FA2078401C2070E570A07AB9
:1039400040B1E07A30B90FA000F08CF894F8200074
:10395000E072A572D4E90812E07A401A75EB020011
:1039600000D2E572FFF7F0FB70BD00008801002077
:10397000805D0008D85D00083C2A0020BC230020A0
:10398000C01F002055415254206672616D6520654C
:1039900072726F72210A000070B5044609480D4624
:1039A0000022446111462846FDF7C0FE2846FDF777
:1039B000AFFE2046FEF77CFE2046BDE87040FEF7D5
:1039C000C1BE00008801002010B50446084884618B
:1039D0000846FDF79DFE2068C16841F01001C160F6
:1039E0002046BDE810404FF480620249FFF7FAB963
:1039F000880100203C26002004488069016809688D
:103A0000C90601D5FFF704BA7047000088010020FD
:103A100070470178407841EA0020704770B50B4C40
:103A20000246094D207B0AA12844FCF727FD227B92
:103A30006178AB181035104445F82130401C2073D4
:103A4000491C617070BD0000B01F0020880100207B
:103A500025640000024901204872FDF793B9000077
:103A6000B0010020044A034B517843F82100491C5F
:103A700051707047C01F00208801002010B5044617
:103A8000FCF7EFFD82B2034821468069BDE8104093
:103A9000FFF710BA8801002010B50C46022A12D197
:103AA000D4E9002308A11048FCF7E8FC0E48D4E94B
:103AB00000230EA12D30FCF7E1FC0B48BDE81040BF
:103AC0002D30FFF7CFBF10BD41542B434950535405
:103AD0004152543D22544350222C222573222C2241
:103AE0002573220A000000003C34002049503A208F
:103AF00025730A506F72743A2025730A0000000083
:103B000070B50C4605460B46024606A10D48FCF76B
:103B1000B5FC23462A46BDE870400A480AA12D306C
:103B2000FCF7ACBC41542B43495053544152543DD3
:103B300022544350222C222573222C222573220A40
:103B4000000000003C34002049503A2025730A5000
:103B50006F72743A2025730A0000000070B50646A3
:103B6000FCF77FFD05B215A13046FCF737FE14497E
:103B7000144C60B1A089C5F56172824207DD08442A
:103B80003146FCF74AFDA0892844A08170BD002081
:103B9000A072A2891A238B5411444870A0810AA0F4
:103BA000FFF760FF607A0128F0D1BDE87040054959
:103BB0000322C43108A0FFF705BE00000A00000080
:103BC0003C2E0020B00100204461746120726563C6
:103BD0006F726465642E0A0073656E6474637000AE
:103BE0004FF420710148FDF7FBB90000BC23002011
:103BF0004FF480610148FDF7F3B900003C26002036
:103C000010B5FFF72FFF012010BD000070B506466C
:103C1000012A23D10868FCF7E1FC04001ED003252B
:103C20000FA0FFF71FFF00F0EFF9001941EBE4715F
:103C3000114CC4E90C014FF00000A06100F0E4F960
:103C4000206100F0E1F96061022060722A4604F10F
:103C5000C4013046BDE87040FFF7B4BD70BD000040
:103C600053746172742073656E64696E672070614D
:103C7000636B616765730A00B001002070B5114C79
:103C8000607A02281DD10025657200F0BDF9401E42
:103C900041F1FF31C4E90C0100F0B6F9401E41F1D9
:103CA000FF31C4E90A0108A0E061E571A571074888
:103CB000E17800EBC1000079401CE0706079401EA3
:103CC000607170BDB0010020000000008838002045
:103CD000FDF7C4BC30B593B030216846FCF757FD02
:103CE00014210CA8FCF753FD1C480025016841F085
:103CF00080510160006800F0805011901848016800
:103D000041F4404101600068022400F440401190F9
:103D100001200090000401908001CDE906401920A7
:103D20000890C020CDE9090404200B906846FEF7F6
:103D3000B5FA08B172B6FEE70CA90F2081E8310090
:103D40004FF48050CDE90F0503210CA8FEF7B4F91C
:103D5000002801D072B6FEE713B030BD40380240F3
:103D6000007000400248016841F470010160704732
:103D700088ED00E010B5214C607A20B1012808D010
:103D8000022808D038E000F03FF9C4E90C01022015
:103D900010BD1BA02EE025A0FFF764FEA069401C0B
:103DA000A061FFF73BFE24A0FFF75CFE00F02CF9BA
:103DB0002169401AFFF732FE21A0FFF753FE00F001
:103DC00023F9206100F020F9D4E90C23801A9941ED
:103DD00006D22078C01E2070A078C01CA0700BE016
:103DE00019A0FFF73FFE00F00FF96169401AFFF7D5
:103DF00015FE1CA0FFF736FE012010BDB00100200B
:103E0000546865206D657373616765206861732010
:103E10006265656E2073656E7420746F20746865CA
:103E2000207365727665722E0A0000005061636B24
:103E300061676520230000002073656E74202800F0
:103E400020732E290A000000456E642073656E649D
:103E5000696E67207061636B61676573202D202038
:103E60000000000020732E0A0000000010B512A10F
:103E70001348FCF7D2FB1248124A2038002103787D
:103E800052F823209160407A012803D0022806D0FE
:103E9000012010BD0C48FFF7F1FD032010BD0A48BA
:103EA000002161224FF46173491C00F8012B9942F3
:103EB000FADB1A210170EDE753454E444F4B0000E9
:103EC000D00100208C3400203C2E0020064807A1A1
:103ED000084A098801840078054902EB800040689F
:103EE0008160012070470000B00100203E0000000A
:103EF0006D3E00088C3400200148FEF7C8BC00006D
:103F00006C030020F0B502681D4B1E4C9F031E4D34
:103F10001E4E984207D0B84205D0A04203D0A84216
:103F200001D0B04204D122F0700C4A6842EA0C027F
:103F3000984210D0B8420ED0A0420CD0A8420AD06D
:103F4000B04208D0124CA04205D0124CA04202D080
:103F5000114CA04203D122F44074CA6822434C6938
:103F600022F08002224302608A68C2620A6882628A
:103F7000984201D10969016301214161F0BD00004E
:103F8000000001400004004000080040000C004018
:103F900000400140004401400048014010B58468E1
:103FA00042EA032224F47F440A432243826010BD84
:103FB000826822F070020A4342F007018160704774
:103FC00010B5036A046A24F001040462846924F0D1
:103FD000F00444EA021423F00A020A4384610262F4
:103FE00010BD10B5036A23F0100303628369046AED
:103FF00023F4704343EA023224F0A00343EA0111A0
:104000008261016210BD00000149D1E908017047D9
:104010008801002010B5806B0021C185C184FEF7A6
:10402000FDFC10BD70B5846B2068406994F83D10AC
:10403000C0F3C0100025212904D118B1E584204621
:1040400000F0B0F82068406994F83E10C0F380108A
:10405000222904D118B1E585204600F07CF8206CB7
:1040600040F0100020642046FEF7D8FC70BD10B56B
:104070000146806B09680968C9052FD40021C185F4
:1040800001680C3151E8002F22F4807241E80023CE
:10409000002BF5D10168143151E8002F22F0010204
:1040A00041E80023002BF5D10168143151E8002FBD
:1040B00022F0400241E80023002BF5D1202180F8B6
:1040C0003E10016B012909D101680C3151E8002F24
:1040D00022F0100241E80023002BF5D1016B0129E9
:1040E00002D0FEF795FE10BD818DFEF796FC10BD47
:1040F00010B5806B016B012902D0FEF7D9FE10BD0F
:10410000818D4908FEF789FC10BD10B50146806B12
:1041100009680968C90516D40021C18401681431F1
:1041200051E8002F22F0800241E80023002BF5D156
:1041300001680C3151E8002F42F0400241E80023B1
:10414000002BF5D110BDFEF7FBFE10BD10B5806B46
:10415000FEF7FCFE10BD01680C3151E8002F22F47F
:10416000907241E80023002BF5D10168143151E829
:10417000002F22F0010241E80023002BF5D1016B52
:10418000012909D101680C3151E8002F22F01002F9
:1041900041E80023002BF5D1202180F83E100021BA
:1041A0000163704701680C3151E8002F22F0C00212
:1041B00041E80023002BF5D1202180F83D10704705
:1041C00008B590F83E10222901D0022008BD82686F
:1041D0004FF480539A4201D1016921B1816A9A4218
:1041E0001BD04AB10AE00268816A5268C2F3080231
:1041F0000A80816A891C08E0026972B1026852680B
:1042000002F07F020A70816A491C8162C18D491ED9
:104210000904090CC18503D019E002685268F1E76E
:104220000168CA6822F02002CA600168CA6822F4E4
:104230008072CA6001684A6922F001024A61202145
:1042400080F83E10016B012903D0FEF7E1FD00204C
:1042500008BD0021016301680C3151E8002F22F0F4
:10426000100241E80023002BF5D101680A68D2064C
:1042700002D50A6849680091818DFEF7CEFBE6E71A
:1042800070B5044600680169E26821F440511143A9
:1042900001612169A068E26908436169114308432B
:1042A0002168CA6849F20C639A430243CA602068D5
:1042B0004169A26921F4407111434161314920688B
:1042C000884202D03049884202D1FDF7A5FF01E0C3
:1042D000FDF792FFE2690023192164253226B2F529
:1042E000004F626828D0A0FB0101930F9200FCF7F9
:1042F0004DF80146B0FBF5F06FF01802504301EBAA
:10430000800006EB0010B0FBF5F000F0F002B1FB0E
:10431000F5F002EB0012B1FBF5F06FF01803584313
:1043200001EB800006EB0010B0FBF5F000F00F0091
:1043300021681044886070BDA0FB010192185B41A8
:10434000FCF724F80146B0FBF5F00201B1FBF5F0F3
:104350006FF01803584301EB800006EBC000B0FB80
:10436000F5F000F0F80002EB4002B1FBF5F0584325
:1043700001EB800006EBC000B0FBF5F000F0070099
:10438000D6E70000001001400014014038B58162FA
:1043900082850025134604460564222084F83E00E9
:1043A000A26B1B48D063A26B1A481064A26B1A4818
:1043B000D064A06B0A4605652168A06B091DFDF756
:1043C0000DF8206801684068009084F83C5020682F
:1043D0000C3050E8001F41F4807140E80012002AC0
:1043E000F5D12068143050E8001F41F0010140E889
:1043F0000012002AF5D12068143050E8001F41F067
:10440000400140E80012002AF5D1002038BD00002C
:104410006F400008F14000082540000810B503482F
:10442000FEF706FBBDE81040FFF7E6BAB403002034
:104430002DE9F0410C46D0F8C422D0F8BC12F9B1F5
:1044400004EB840300EB83050026AB694BB1C4EB9E
:10445000C40702EB8702526CB3FBF2F702FB173280
:1044600082B1C1F81462D0F8C00203692BB1D1F84F
:104470000802224601F5047198470020BDE8F0814A
:104480000320FBE700231A462146AE6100F0A5FC9D
:10449000F3E770B5D0F8BC4205466CB100F086FB7E
:1044A000C4F80C02D5F8C012D4F80402CA6804F5A6
:1044B00003719047002070BD032070BD70B50446A5
:1044C000812100F0D2FA002525870121204600F045
:1044D000CCFAA4F878518221204600F0C6FAA4F85C
:1044E0004C50A4F84E50D4F8BC0248B1D4F8C002E5
:1044F00004F52F7440688047206800F05CFE25605A
:10450000002070BD10B5D0F8BC4284B1D0F8C01204
:1045100059B194F80002FF2807D08B6894F8012263
:1045200021469847FF2084F80002002010BD032098
:1045300010BD00000A21018000487047780000206B
:104540004321018000487047C800002043210180BA
:1045500000487047840000204321018000487047D4
:104560000C0100202DE9F04704464FF4077000F0DD
:1045700023FE05004FF0000735D0C4F8BC52207C64
:104580004FF010084FF40079012680B34023022237
:104590008121204600F06EFB268740230222012164
:1045A000204600F067FBA4F87861A4F84E80082349
:1045B00003228221204600F05DFBA4F84C60D4F871
:1045C000C00200688047C5F81472C5F81872207CD4
:1045D000D5F80422A8B140230121204600F056FB63
:1045E0000020BDE8F0870220C4F8BC72F9E7FFE7BD
:1045F0004B4602228121204600F03CFB26874B4699
:10460000CCE74B46E8E710B5D0F8BC1251B1027CBC
:10461000002AD1F8042207D04023012100F036FB04
:10462000002010BD032010BD4FF40073F5E719B151
:10463000C0F8C0120020704703207047D0F8BC02B9
:1046400018B1C0F804120020704703207047D0F85A
:10465000BC0228B1C0F81022C0F808120020704730
:10466000032070472DE9FC410646D0F8BC720020BB
:104670000C468DF80000ADF80400054637B12078EF
:1046800010F0600128D0202944D102E00320BDE8C9
:10469000FC81E288C2B1000660780AD5D6F8C01263
:1046A0008B6839469847E288072A00D9072239469D
:1046B00028E087F80002A07987F80102E2883946ED
:1046C000304600F06CF82AE0D6F8C012607800227C
:1046D0008B682146984722E0607830B101281ED0CF
:1046E0000A2809D00B2815D110E096F89C0203285F
:1046F00010D1022201A905E096F89C02032809D1F5
:1047000001226946304600F064F808E096F89C0201
:10471000032804D02146304600F036F80325284609
:10472000B5E710B5D0F8BC12012219B1D1F8143296
:1047300013B10FE0032010BD0122C1F81422D1F8FB
:104740001022C262D1F81032D1F80822812100F083
:1047500044FB0022104610BD10B5D0F8B8220AB1B3
:1047600052689047002010BD134610B50A4600213C
:1047700000F08CFA002010BD134610B50A46002147
:1047800000F02BFB002010BD10B50446802100F086
:1047900009FB2046BDE81040002100F003BB10B526
:1047A0000323C0F89432C0F858211346C0F85C21A6
:1047B0000A46002100F06AFA002010BD10B505215C
:1047C000C0F8941200231A46194600F05FFA002040
:1047D00010BD10B50223C0F8943282611346C26145
:1047E0000A46002100F0F9FA002010BD10B504219E
:1047F000C0F8941200231A46194600F0EEFA002081
:1048000010BD000010B50A46024903A000F0E1F80F
:10481000004810BDB00D002043444320436F6E6636
:1048200069670000122008800048704720000020BF
:1048300010B50A46024903A000F0CBF8004810BDAD
:10484000B00D002043444320496E74657266616375
:104850006500000004200880004870471C0000200C
:1048600010B50A46024903A000F0B3F8004810BD95
:10487000B00D002053544D6963726F656C656374AD
:10488000726F6E696373000010B50A46024903A097
:1048900000F09FF8004810BDB00D002053544D3378
:1048A00032205669727475616C20436F6D506F725F
:1048B0007400000010B51A2008800A480168001D25
:1048C0000468001D0068081809D008220649FEF790
:1048D00019FC0549042210312046FEF713FC02485A
:1048E000801E10BD107AFF1F36000020F8B5044668
:1048F0000020ADF8000048880D46010A08295FD263
:10490000DFE801F05E0409175E5E3C45D4F8B4129E
:10491000207C0A6819E0207C02260028D4F8B8021E
:1049200005D0C16A684688470146467039E0816A09
:10493000F8E7C0B2062843D2DFE800F0030A1014FB
:10494000181CD4F8B402426805E0694690471CE0A0
:10495000D4F8B402826892B3207CF6E7D4F8B402AB
:10496000C268F8E7D4F8B4020269F4E7D4F8B402F4
:104970004269F0E7D4F8B4028269ECE7207CF0B930
:10498000D4F8B802416B68468847014609E0207CAC
:10499000A8B9D4F8B802016B6846884701460720D9
:1049A0004870EA888AB1BDF8000040B1824200D95F
:1049B0000246ADF800202046FFF70BFFF8BDFFE7E9
:1049C00029462046FFF7E0FEF8E72046FFF70EFFF6
:1049D000F4E770B5002300281ED00025044602E04D
:1049E0006D1CEDB2641C2678002EF9D1022404EB74
:1049F000450414801278CA545B1C0322CA54002454
:104A00005B1C06E0CA545B1CDAB28C54521CD3B255
:104A1000401C0278002AF5D170BD01004FF0000063
:104A200004D0012901D0022901D0032070470120C0
:104A3000704778B10023C0F8B832C0F8C032C0F86F
:104A4000CC3209B1C0F8B412012180F89C12027076
:104A500000F0B0B80320704710B5D0F8C402FCF7DE
:104A6000FFFEBDE81040FFF7D8BF10B5D0F8C40274
:104A7000FCF7D0FEBDE81040FFF7CFBF70B516467B
:104A8000044621B194F89C02032841D048E0D4F8B0
:104A9000941204F114000025022932D1D0E9023128
:104AA0008B4206D95A1A826031462046FFF764FECF
:104AB0000FE0994214D14068884211D3D4F898127B
:104AC00088420DD2002211462046FFF755FEC4F859
:104AD000985200231A461946204600F0D7F810E0F5
:104AE00094F89C02032805D1D4F8B802C16809B132
:104AF000204688478021204600F054F92046FFF7E1
:104B00005DFE94F8A00201280AD184F8A05207E0C3
:104B1000D4F8B80242691AB120469047002800D163
:104B2000002070BD10B51346044621B194F89C02D4
:104B3000032823D02AE0D4F8941204F5AA7003299C
:104B400024D1D0E9021291420AD98A1A8260C0683F
:104B5000824200D3024619462046FFF705FE15E0C3
:104B600094F89C02032805D1D4F8B802016909B170
:104B7000204688472046FFF739FE07E0D4F8B80200
:104B800082691AB120469047002800D1002010BD4C
:104B90000020704710B5012180F89C12D0F8B8228F
:104BA00012B1526801799047002010BDD0F8C402BC
:104BB000FCF784BE10B5017839BB15490222C1F853
:104BC0000404C0F8C4124FF0A040086004204860FC
:104BD0000020C1E90320C1E9062008624862C862DA
:104BE00008630846FDF744F908B1FCF7F7F980219E
:104BF0000748FCF7CEFD402200210548FCF7CDFD1B
:104C0000802201210248FCF7C8FD002010BD0000F1
:104C1000A80900200A0601F07F01D0F8C402C1EB08
:104C2000C10100EB810002D590F83E00704790F87A
:104C3000FE01704710B5D0F8B82222B190F89C322E
:104C4000032B02D004E0032010BD126A02B190478A
:104C5000002010BD10B5D0F8B82222B190F89C32D7
:104C6000032B02D004E0032010BD526A02B190472A
:104C7000002010BD10B51C461346D0F8C4022246D1
:104C8000FCF725FEBDE81040FFF7C7BE10B5D0F811
:104C9000C402FCF74CFEBDE81040FFF7BEBE70B585
:104CA0000125044680F89C520020C4F894026060FC
:104CB000C4F8A402D4F8B802E0B1D4F8BC1221B10F
:104CC000426812B10021204690470022402311463D
:104CD0002046FFF7CFFF4026A4F864513346002258
:104CE00080212046C4F86061FFF7C4FFA58400203E
:104CF000266270BD032070BD90F89C12042903D178
:104D000090F89D1280F89C120020704710B5D0F8E2
:104D1000B81221B190F89C22032A02D004E00320AB
:104D200010BDC96901B18847002010BD0174002081
:104D3000704710B5D0F8C402FDF769F9BDE810401E
:104D4000FFF76BBE70B5044600F2AA20054600F0DE
:104D50004DF80120C4F89402B4F8B002C4F89802E7
:104D600094F8AA0210F01F010AD001290ED00229DE
:104D700012D000F080012046BDE8704000F012B86B
:104D800029462046BDE8704000F0C2B829462046BA
:104D9000BDE8704000F0E6B929462046BDE8704005
:104DA00000F040B910B5D0F8C402FCF7E4FDBDE84E
:104DB0001040FFF732BE10B5D0F8C402FDF742F93B
:104DC000BDE81040FFF729BE90F89C1280F89D12B4
:104DD000042180F89C120020704710B5D0F8C4025E
:104DE000FCF703FEBDE81040FFF717BE70B505469F
:104DF00011F8010B2870087868704C1C2046FEF7EB
:104E000008FE6880A41C2046FEF703FEA880A01CB4
:104E1000FEF7FFFDE88070BD38B504460020ADF810
:104E2000000049B1C4F8B812C96A19B16846884788
:104E3000C4F8CC02002038BD032038BD0246032050
:104E4000D2F8B832002B02D01B68104618477047C2
:104E50002DE9F0410F462C4E89780025044631702B
:104E6000012906D939462046FFF78EFC0320BDE80C
:104E7000F08194F89C0202280CD003281DD03946FA
:104E80002046FFF781FC31782046FFF765FC0325BB
:104E90002846ECE799B320466160FFF7CFFF050095
:104EA00004D039462046FFF76FFCF1E72046FFF7B4
:104EB0009DFC032084F89C02EAE74FF00208C1B190
:104EC000606888421BD0C1B22046FFF745FC3178AC
:104ED00020466160FFF7B2FF050010D0394620463A
:104EE000FFF752FC21792046FFF736FC84F89C82BC
:104EF000CEE784F89C8220466160FFF72DFC2046B7
:104F0000FFF774FCC4E7000074000020FFF753BFF4
:104F10002DE9F0410A78002512F0600208D0202A1D
:104F200001D0402A71D1D0F8B8229268904731E080
:104F30004B78002201260A2B67D2DFE803F0415E9E
:104F40006658660805662D29FFF7D0FC5FE0044629
:104F50008888D8B9C888C8B94888802816D200F08F
:104F60007F0794F89C02032810D084F89E7239467B
:104F70002046FFF7DEFE2046FFF738FC1FB1022077
:104F800084F89C0243E084F89C6240E020463CE0C8
:104F9000FFF75EFF05463AE0CB88012B35D190F84C
:104FA0009C32012B04D0022B02D0032B2DD104E024
:104FB0008260012200F1080116E00122011D13E0C8
:104FC00090F89C22012A03D0022A01D0032A1CD186
:104FD000CA88022A19D1C660D0F8A41209B10321E7
:104FE000C160022200F10C01FFF7F3FB0FE04988DA
:104FF00001290CD1C0F8A46211E090F89C32012B79
:1050000008D0022B06D0032B04D0FFF7BDFB2846A7
:10501000BDE8F08149880129F9D1C0F8A422FFF741
:10502000E5FBF4E72DE9F0410D460446287800261B
:10503000097910F060000BD0202801D040286DD1F4
:10504000D4F8B8022946826820469047064686E092
:105050006878A8B3012822D003287CD194F89C0258
:10506000022802D0032876D10BE0002973D08029D2
:1050700071D02046FFF796FE80212046FFF792FE72
:105080006DE0688838B931B1802904D0E88810B95A
:105090002046FFF787FE2046FFF7A8FB5FE094F865
:1050A0009C020228E1D0032855D16888A8BB480695
:1050B00002D02046FFF7D0FC2046FFF797FBBFE762
:1050C000FFE794F89C020027022802D0032842D16F
:1050D00011E009B180293ED1080601F07F0000EB04
:1050E000800004EB800101D5143101E001F5AA71C3
:1050F00002220F602BE0080601F00F0000EB800099
:1051000004EB80000BD5808C40B101F07F0000EBF8
:10511000800004EB800514350CE020E01BE0B0F8C3
:105120006401C0B101F07F0000EB800004EB80055A
:1051300005F5AA7541B1802906D02046FFF76AFD22
:1051400010B10120286000E02F600222294620468D
:10515000FFF73FFB03E029462046FFF715FB3046EB
:10516000BDE8F08170B50646087800240D4610F0C1
:10517000600003D0202801D0402817D196F89C0267
:10518000012803D0022801D003280FD12879012853
:105190000CD8D6F8B8028268304690470446E888B2
:1051A000204306D13046FFF721FB02E03046FFF7EF
:1051B000EBFA204670BD7047004870478807002012
:1051C00070B50A78012302F00F054E78AB401B4CF6
:1051D000D0F81C58012E17D045EA0343C0F81C38FC
:1051E00000EB4210D0F8002B12040BD4D0F8002BA7
:1051F0000B89C978C3F30A031A4344EA81410A437D
:10520000C0F8002B002070BD9BB21D43C0F81C5895
:1052100000EB4210D0F800391B04F3D4D0F8003969
:105220000D89C978C5F30A0589042B4341EA8251E7
:105230000B432343C0F80039E4E70000008000106E
:10524000D0F800196FF30A01C0F80019D0F804185B
:1052500041F48071C0F804180020704770B504460E
:1052600006990A9E049D0D98012916D0E06840F029
:105270004000E060204600F02BF8A16B1EB321F443
:105280008031A163012D07D1A16841F00601A16021
:10529000A16841F02001A16070BDA16B21F48031B3
:1052A000A163E168094A1140E160E16821F440111D
:1052B000E160012803D1E06840F48010E0602046FE
:1052C00000F006F8DEE741F48031DAE7BFFFBDFF0A
:1052D00008B500220D490092009B5B1C00938B4295
:1052E0000CD80369002BF7DA0092026942F0010240
:1052F0000261009A521C00928A4201D9032008BD23
:105300000269D207F5D1002008BD0000400D03005E
:1053100030B54C780A78012300EB4212012C2CD0D6
:10532000D2F8004B002C0BDAD2F8004B44F00064AA
:10533000C2F8004BD2F8004B44F08044C2F8004B56
:10534000D0F83C580C7804F00F0403FA04F425EA72
:105350000444C0F83C48D0F81C48097801F00F011B
:105360008B4024EA0341C0F81C18D2F8000B1949FD
:105370000840C2F8000B002030BDD2F80049002CD4
:105380000BDAD2F8004944F00064C2F80049D2F8C0
:10539000004944F08044C2F80049D0F83C480D78F8
:1053A00005F00F0503FA05F5ADB2AC43C0F83C4873
:1053B000D0F81C48097801F00F018B4099B28C435A
:1053C000C0F81C48D2F8000903490840C2F8000997
:1053D000D1E700000078F3EF007833ECD0F8001E3E
:1053E00021F00301C0F8001ED0F8041821F00201DA
:1053F000C0F8041800207047D0F8001E21F0030107
:10540000C0F8001ED0F8041841F00201C0F80418DA
:10541000002070472DE9F04F00250E460446DDF8C8
:105420002CC0DDF824B0109F2846294604EB8002EA
:10543000C2F80411401C0F28F8D32046C7B1806B76
:1054400020F40012A263A06B40F40022A26308467D
:105450008846C4F8000ED4F800182046C4F8001896
:10546000BCF1010F16D0D0F8001841F0030116E08E
:10547000D0F8040840F00202C4F80428A06B40F4FD
:105480000012A263A06B20F40022A263A06B20F4A0
:105490008022DBE7D0F800180BB141F00101C0F821
:1054A0000018102100F094FA00B10125204600F008
:1054B0007BFA00B101254046C4F81088C4F814886E
:1054C000C4F81C8800214FF000694FF0904A4FF655
:1054D0007F3314E004EB4112D2F800C9BCF1000F95
:1054E00006DA11B1C2F800A904E0C4F8009901E09D
:1054F000C2F80009C2F81009C2F80839491C8E42E6
:10550000E8D8002115E000BF04EB4112D2F800CB2F
:10551000BCF1000F06DA11B1C2F800AB04E0C4F828
:10552000009B01E0C2F8000BC2F8100BC2F8083B68
:10553000491C8E42E8D8D4F8101821F48072C4F8BF
:105540001028A0616FF080406061BBF1000F03D1B3
:10555000A06940F01000A061A06909490843A0615A
:105560000C9818B1A06940F00800A061012F03D188
:10557000A06904490843A0612846BDE8F08F0000F7
:1055800000383C8004000040816821F00101816006
:105590000020704770B50D784E78434CEBB200EBAD
:1055A0004313012E1FD0D3F8100B6FF31200C3F872
:1055B000100BD3F8100B2040C3F8100B486908B14A
:1055C00088684861D3F8100B40F40020C3F8100B32
:1055D000D3F8100B8C68C4F312042043C3F8100BEB
:1055E000012A55D058E04E69002ED3F8106932D008
:1055F0006FF31206C3F81069D3F810692640C3F898
:1056000010694E698C68A64200D94C61D3F81049E4
:1056100044F40024C3F81049D3F810494E69C6F386
:1056200012063443C3F81049012A22D000EB451278
:10563000D2F8003943F00443C2F800394A6932B362
:10564000D0F83428097801F00F03012199400A436A
:10565000C0F8342826E02640C3F81069D3F8104972
:1056600044F40024C3F81049D3F810496FF312042E
:10567000D8E7096919B100EB4512C2F8141900EB1B
:105680004510D0F8001941F00441C0F8001909E0B4
:10569000C86808B1C3F8140BD3F8000B40F00440FD
:1056A000C3F8000B002070BDFFFF07E010B5036CCE
:1056B000134CA34203D9D0F8003B002B1EDB002380
:1056C000C0F8103BD0F8103B43F40023C0F8103B67
:1056D000D0F8103B43F01803C0F8103BD0F8103B53
:1056E00043F0C043C0F8103B012907D1C0F8142B88
:1056F000D0F8001B41F08021C0F8001B002010BD35
:105700000A30544F4A780B78012A00EB43100BD033
:10571000D0F8002B22F40012C0F8002BC97803291E
:1057200014D0022912D017E0D0F8002922F4001278
:10573000C0F80029C978032901D002290CD1D0F87A
:10574000001941F08051C0F8001905E0D0F8001BA5
:1057500041F08051C0F8001B002070470A784B7858
:10576000D1B200EB4110012B12D0D0F8001B002960
:1057700006DB2AB1D0F8001B21F08041C0F8001BE5
:10578000D0F8001B41F40011C0F8001B0020704746
:10579000D0F80019002906DB2AB1D0F8001921F051
:1057A0008041C0F80019D0F8001941F40011C0F888
:1057B0000019EBE7F8B50C784F78774DE3B26FF04E
:1057C000604600EB4313012F26D0D3F8104B6FF344
:1057D0001204C3F8104BD3F8104B2C40C3F8104BF5
:1057E0004C69002C74D08D682C44641EB4FBF5F415
:1057F000D3F8105BA4B206EAC4463543C3F8105B85
:10580000D3F8105B8E686643C6F312042543C3F8D1
:10581000105B012A71D0A6E04F691FB3D3F810794D
:105820006FF31207C3F81079D3F810792F40C3F83B
:1058300010794F698D682F447F1EB7FBF5F506EA96
:10584000C545D3F810693543C3F81059D3F810593A
:105850004E69C6F312063543C3F81059CD78012DB1
:1058600010D01BE0D3F810692E40C3F81069D3F8AC
:10587000105945F40025C3F81059D3F810596FF3A7
:10588000120509E0D3F8105925F0C045C3F81059A6
:10589000D3F8105945F00055C3F81059012A18D013
:1058A00000EB4413D3F8004944F00444C3F8004922
:1058B000CC78012C2FD04A6962B3D0F8342809780B
:1058C00001F00F03012199400A43C0F8342860E039
:1058D00036E00A691AB100EB4413C3F81429C978F9
:1058E00001290FD1D0F80818C90500EB4411D1F8EF
:1058F000002903D442F0005202E030E042F080522E
:10590000C1F8002900EB4410D0F8001941F004411F
:10591000C0F800193DE0D0F80848E405D3F8004984
:1059200002D444F0005401E044F08054C3F800492C
:1059300000928A8A93B20A78C96800F06FF928E069
:10594000D3F8104B8D68C5F312052C43C3F8104BE8
:10595000D3F8104B44F40024C3F8104B59E7CA683D
:105960000AB1C3F8142BC97801290CD1D0F8080862
:10597000C005D3F8000B02D440F0005001E040F025
:105980008050C3F8000BD3F8000B40F00440C3F87C
:10599000000B0020F8BD0000FFFF07E0816841F028
:1059A000010181600020704708B50021009110219D
:1059B00001610649009A521C00928A4201D90320D3
:1059C00008BD0269D206F5D4002008BD400D0300D1
:1059D00008B500220092202242EA811101610649A5
:1059E000009A521C00928A4201D9032008BD026924
:1059F0009206F5D4002008BD400D0300D0F8080839
:105A000010F0060004D0022803D0062801D00F2091
:105A1000704702207047406900F001007047D0F8DD
:105A20001818D0F81C08084080B27047D0F8181831
:105A3000D0F81C080840000C704710B5D0F810389A
:105A4000D0F8342801F00F0400EB4110E24002F0DE
:105A50000102D0F8080943EAC212104010BD00EB61
:105A60004111D1F8081BD0F814080840704741696B
:105A700080690840704730B503460846940802F034
:105A80000301002203F5805303E01D6840F8045B26
:105A9000521CA242F9D300290BD01C680022D50069
:105AA00024FA05F3491E521C090400F8013B090CB5
:105AB000F5D130BD70B50446C068002520F0C04067
:105AC000E060012901D079B120E0E06840F00050A9
:105AD000E0600120FBF7BAFC60696D1C10F0010F5B
